:020000040800F2
:1000000018070020650100086D0100086F01000855
:1000100000000000000000000000000000000000E0
:100020000000000000000000000000007101000856
:1000300000000000000000007301000875010008C6
:1000400077010008770100087701000877010008B0
:1000500077010008770100087701000877010008A0
:100060007701000877010008770100087701000890
:100070006503000877010008770100087701000890
:100080007701000877010008770100086115000872
:100090007701000825170008CD1F00087701000828
:1000A0007701000877010008770100087701000850
:1000B0007701000877010008590A00087701000855
:1000C00000F002F800F03EF80CA030C80838241800
:1000D0002D18A246671EAB4654465D46AC4201D180
:1000E00000F030F87E460F3E0FCCB6460126334274
:1000F00000D0FB1AA246AB463343184780230000CA
:10010000A0230000103A02D378C878C1FAD8520769
:1001100001D330C830C101D504680C6070470000BD
:100120000023002400250026103A01D378C1FBD813
:10013000520700D330C100D50B6070471FB51FBDFB
:1001400010B510BD00F0DAF81146FFF7F7FF02F026
:10015000ABF800F0F2F803B4FFF7F2FF03BC00F0D5
:10016000F9F800000748804707480047FEE7FEE728
:10017000FEE7FEE7FEE7FEE704480549054A064BB1
:100180007047000001150008C10000081801002098
:10019000180700201803002018030020002203097C
:1001A0008B422CD3030A8B4211D300239C464EE092
:1001B00003460B433CD4002243088B4231D303094E
:1001C0008B421CD3030A8B4201D394463FE0C30900
:1001D0008B4201D3CB01C01A524183098B4201D318
:1001E0008B01C01A524143098B4201D34B01C01A03
:1001F000524103098B4201D30B01C01A5241C3087B
:100200008B4201D3CB00C01A524183088B4201D3E9
:100210008B00C01A524143088B4201D34B00C01AD5
:100220005241411A00D201465241104670475DE0EA
:10023000CA0F00D04942031000D34042534000226D
:100240009C4603098B422DD3030A8B4212D3FC2216
:10025000890112BA030A8B420CD3890192118B4295
:1002600008D3890192118B4204D389013AD09211AB
:1002700000E08909C3098B4201D3CB01C01A524166
:1002800083098B4201D38B01C01A524143098B422F
:1002900001D34B01C01A524103098B4201D30B0118
:1002A000C01A5241C3088B4201D3CB00C01A52413D
:1002B00083088B4201D38B00C01A5241D9D2430824
:1002C0008B4201D34B00C01A5241411A00D2014661
:1002D000634652415B10104601D34042002B00D5CB
:1002E0004942704763465B1000D3404201B500208D
:1002F000C046C04602BD704770477047754600F063
:1003000025F8AE46050069465346C008C00085463C
:1003100018B020B5FFF730FF60BC00274908B6468B
:100320000026C0C5C0C5C0C5C0C5C0C5C0C5C0C504
:10033000C0C5403D49008D46704710B50446C046D3
:10034000C0462046FFF707FF10BD00000048704779
:10035000B800002001491820ABBEFEE726000200CD
:1003600070470000F8B5564C0421204600F0E8F82C
:10037000002803D00421204600F0AFF8A06A504BBB
:100380000827504C4033002201284CD0022842D18B
:100390004D481D68C189491909B2C181057B6D1C91
:1003A000EDB20573042D36D10273CD17AD0F691868
:1003B000891009B2C281C55FAE00751B6918CD17DF
:1003C000AD0F6918891009B20181855E04264D1BA5
:1003D000865F29467143CE17B60D71188912002920
:1003E00000DA0021082900DD08211B68102B13D931
:1003F00081720621415E4D43E917090E4919091220
:1004000049B2C172002900DAC2720B214156642937
:1004100001DD6421C172F8BD2178002901D0877205
:10042000F8BD8272F8BD29481D68C189491909B211
:10043000C181057B6D1CEDB20573042DF2D10273F1
:10044000CD17AD0F6918891009B2C2810825455F23
:10045000AE00751B6918CD17AD0F6918891009B268
:1004600001810025455F04264D1B865F29467143A7
:10047000CE17B60D71188912002900DA002108295B
:1004800000DD08211B68102B13D981720621415E03
:100490004D43E917090E4919091249B2C1720029E1
:1004A00000DAC2720B2141566429BBDD6421C1729E
:1004B000F8BD2178002901D08772F8BD8272F8BD9D
:1004C000002401401E000020500000206000002099
:1004D000836A0B4383624261704701607047002961
:1004E00004D0816801221143816070478168022233
:1004F000114381607047002182680123DB071A43A2
:1005000082600F231B038268D20FD207491C9942D5
:1005100001D0002AF7D18168002901DB006C704707
:100520000020704702460020CB0104D592680123C9
:100530001B069A4300E012680A4200D0012070476F
:100540000246002053680B4012680A4202D0002B7A
:1005500000D001207047002A03D042680A4342605D
:10056000704742688A4342607047000030B5C268F5
:10057000084B1A408C680B680D792343CC686D03D7
:100580002C4323430C69496923430B431343C36042
:1005900030BD000003D2FFFF816804221143816057
:1005A00070470021016001718160C160016141619A
:1005B00070470000F0B5012676028A1B082410253A
:1005C0000423B14239D011DC202930D007DC0129C5
:1005D00028D0042929D0082900D1C560F0BD4029C0
:1005E00027D0FF390139F9D14360F0BD3F214902DD
:1005F000571A00268A4224D00ADCFF3AFF3A023A10
:100600001DD0012189028A42EFD186614360F0BD8D
:100610000121C903791A0ED0012212049142F6D1A8
:100620004560F0BD08498160F0BDC460F0BD046163
:10063000F0BD0561F0BD4460F0BD4360F0BD4360B6
:10064000F0BD86614360F0BD0101010010B50121DC
:100650004C06204600F09CFE0021204600F098FE4B
:1006600010BD000010B5827A0123194691402A4A34
:1006700014681C431460D3698B43D361037B002B44
:1006800012D1D3688B43D360C38844881B042343AF
:10069000847AE400A4182364838804881B04234319
:1006A000847AE400A4186364037B012B12D1D3681D
:1006B0000B43D360038844881B042343847AE400FB
:1006C000A41823648388C4881B042343847AE40029
:1006D000A4186364C37A002B06D053680B4353609D
:1006E0000389002B04D006E053688B435360F7E77F
:1006F00053698B4353610389012B02D153690B4327
:100700005361407B012802D1D0690843D061106851
:1007100040084000106010BD0066004010B5024661
:10072000002053690B4212D0FF2401340B1BA1425D
:100730005AD018DC082943D00ADC012936D0022916
:1007400039D0042903D1D068082100F07DFB10BD09
:1007500010293AD020293DD04029F8D11069102124
:1007600000F072FB10BD7F2109025C1A8B424AD057
:100770000FDCFF3B013B3CD0FF3BFF3B023B3DD04E
:10078000012189028B42EDD19069702100F05CFB60
:1007900010BD0121C903611A21D001231B04994214
:1007A000F6D15068102100F04FFB10BD9068184939
:1007B00000F04AFB10BDD068032100F045FB10BDDE
:1007C000D068102100F040FB10BD1069032100F03B
:1007D0003BFB10BD1069082100F036FB10BD5068CE
:1007E000082100F031FB10BD9069012100F02CFBC5
:1007F00010BD9069022100F027FB10BD9069042113
:1008000000F022FB10BD5068042100F01DFB10BD5C
:100810000101010080694006400F00017047002A75
:1008200003D042690A434261704742698A43426188
:100830007047000010B5002203680224A343036040
:100840000368012423430360384B00E0521C4468D2
:10085000E40701D19A42F9D14268D2073ED08C799F
:100860008022012C3CD0046894430460CC7940225F
:10087000012C39D00468944304600C7A2022012CA6
:1008800036D00468944304604C7A1022012C33D093
:100890000468944304608C7A0822012C30D00468E8
:1008A00094430460CC7A0422012C2DD00468944334
:1008B00004608A78CC789207240622430C792404B9
:1008C00022434C79098824052243491E0A43C26108
:1008D000016849084900016000211AE0002010BDAC
:1008E000046814430460C1E7046814430460C4E767
:1008F000046814430460C7E7046814430460CAE74B
:10090000046814430460CDE7046814430460D0E72E
:10091000491C4268D20701D09942F9D14068C0070A
:1009200001D0002010BD012010BD0000FFFFFF001E
:1009300030B50B011B18FF3381331C6B04252C4091
:100940001472002C2AD01C6BE40854601C6B022526
:100950002C4054725C6B2407240F94725C6B240A45
:10096000D4749C6BD4729C6B240A14739C6B240CFF
:1009700054739C6B240E9473DC6BD473DC6B240A6D
:100980001474DC6B240C5474DB6B1B0E93742022E8
:10099000002907D001691143016130BD1C6B640D52
:1009A0001460D3E7C1681143C16030BD30B5024661
:1009B000002093685B010AD49068000101D50120F2
:1009C00005E09068C00001D5022000E00420042862
:1009D00038D003019A18FF3281321368DB07DB0F2E
:1009E00013600B7A002B2ED014684D681C434B7A91
:1009F000ED002B431C4314608B7A1B071B0F8B727B
:100A000053681B091B01536053688C7A234353605E
:100A10008C7BCB7A240623434C7B0D7B24042D0254
:100A20002C43234393608C7CCB7B240623434C7C58
:100A3000097C240409020C432343D3601168012379
:100A40001943116030BD13684C7A23430C88640548
:100A500023431360D0E70000F0B585B0E34F0221D7
:100A60003846FFF75BFE00284FD002213846FFF7DB
:100A7000A1FD6A4600213846FFF75AFFDC480125F0
:100A800005706846C07CDB4EDB4C00283FD0012857
:100A90007ED0DA4EDA49DB4BDB4C022879D00328D2
:100AA00033D16846C07AAA282FD1D84A00201072C4
:100AB000AA20106006209072D572307810730878E2
:100AC00001F0D2FC5073187801F0CEFC517B00018C
:100AD00008435073207801F0C7FC9073CC4800782D
:100AE000D073CC48007801F0BFFC1074CA4800787D
:100AF00001F0BAFC117C000108431074C349384668
:100B0000FFF754FF3846FFF785FE05B0F0BD684695
:100B1000007BC24A01026846C07A084310803178DF
:100B2000CA0606D5AF225201904202D2EF20014000
:100B30003170BB4F387800284FD06846B949407BA8
:100B40000870FF280BD0952804D98021B64800F002
:100B5000CBF916E08021B44800F0C4F911E06846F2
:100B6000C07B8007800F012803D18021AE4800F0B0
:100B7000BBF96846C07B800703D18021AA4800F0FA
:100B8000B1F96846A949807B0870FF2811D001E0BF
:100B90005FE0E4E0202807D23878002804D0402124
:100BA000A14800F0A1F920E040219F4800F09AF907
:100BB0001BE06846C07B0007800F012803D140215D
:100BC000994800F091F96846C07B0007800F0CD16E
:100BD0004021954800F086F907E04021924800F056
:100BE00081F98021904800F07DF96846C07B9049EA
:100BF0008006820F012A00D10D70800F18D1087075
:100C000038708C4805708D498B480880864D0121CD
:100C10000903284600F066F93078EC21084030706E
:100C20004021284600F05EF98021284600F05AF95C
:100C30006846C07B8109012903D1217840221143F4
:100C40002170800900D060E72078BF210840207023
:100C50005BE700206946497B8A07920F012A00D191
:100C600001200A07920F012A01D102221043744A7F
:100C7000C3071278DB0FD707FF0FBB420AD0C307A9
:100C800004D0337804273B43337003E03378FB27E9
:100C90003B403370022703463B403A4093420AD020
:100CA000820704D5327808231A43327003E0327881
:100CB000F7231A403270624A10706846007B820740
:100CC000920F012A03D1227804231A43227082074B
:100CD00003D12278FB231A4022700007820F012AD9
:100CE00003D1227808231A432270800F03D1207881
:100CF000F722104020706846C07A8006820F012AD1
:100D000003D1227820231A432270800F03D1207848
:100D1000DF22104020708806810F012903D121783D
:100D2000102211432170800F03D12078EF21084059
:100D300020703078410703D521782943217003E0E2
:100D40002178490849002170000703D520783843ED
:100D50002070DAE62078FD2108402070D5E668464C
:100D6000384AC07A10706846007B30706846427B13
:100D70001007000F002803D0401E2E4686400E703C
:100D80001009002803D0401E29468140197068468A
:100D9000807B0007000F002803D0401E29468140B9
:100DA00021706846C17B1A4801706846017C0807BB
:100DB000000F002804D0401E2A46824015480270C9
:100DC0000809002803D0401E854013480570002202
:100DD00002213846FFF723FD01F0D8F901F0F8F9B8
:100DE000012202213846FFF71AFD8EE6006400401A
:100DF0001100002023000020250000200300002017
:100E000004000020050000200600002070000020E3
:100E1000010000200700002008000020160000202C
:100E20000F000020190000200004004818000020D6
:100E30001B00002000000020501400000A000020C9
:100E40001A00002002000020024600200A4200D0C2
:100E500001207047F0B500220325012393400C6860
:100E60001C409C422AD10C79012C01D0022C12D1B9
:100E7000876854002E46A640B74387604E79A64047
:100E800084682643866084889C43848084888B7928
:100E900093401C438480066853002C469C40A64324
:100EA00006600E7907689E403E430660C668A6430A
:100EB000C660CC799C40C3681C43C460521C102A95
:100EC000CBD3F0BD10B54B07DB0E9A40C9088900A3
:100ED0000818016A0F249C40A1430162016A114372
:100EE000016210BD0185704781617047044901604E
:100EF00000210171012242718171C17170470000AE
:100F0000FFFF00000249014808607047CCCC000098
:100F1000003000400249014808607047AAAA00005A
:100F20000030004001494860704700000030004038
:100F300001498860704700000030004001490860A6
:100F4000704700000030004010B51748FFF729FB3C
:100F5000154910200860154C2046FFF707FB0722B3
:100F600001212046FFF7B4FA2046FFF7C4FA012218
:100F700004212046FFF7EFFA01212046FFF7AFFAE0
:100F800001212046FFF7CEFA0028F9D008480C21AD
:100F90000170022141700121817000F0B5F92046F5
:100FA000FFF7FAFA10BD0000840000200024014081
:100FB00030000020F8B5314C2046FFF747FB3049A0
:100FC00000258D710126CE710E724D728D72CD721B
:100FD0008D70CD7007200871062048710C200880A4
:100FE0002046FFF727FC012202212046FFF717FCCD
:100FF000244CA572E5722673112040012080658083
:10100000FF277F01A780E580258166732046FFF7D3
:1010100029FBA672E57226730520000220806580F8
:10102000A780E580258166732046FFF71BFB022021
:10103000A072E57226732B20C00120806580A780F6
:10104000E580258166732046FFF70CFB0320A07224
:10105000E57226735520800120806580A780E58099
:10106000258166732046FFF7FDFA07481E210170AF
:101070004570867000F048F9F8BD0000006400403B
:101080009C000020A800002030000020F8B539485E
:10109000FFF72CFF374C032020712060002565717D
:1010A00009202146C006FFF7D5FE25713248206091
:1010B00065710126E67109202146C006FFF7CAFEC8
:1010C000362020602D4F21463846FFF7C3FE26719B
:1010D000A5712B4820606571E57109202146C00685
:1010E000FFF7B8FE2748206021462748FFF7B2FEE9
:1010F0002648206021463846FFF7ACFE04202060D9
:1011000021462348FFF7A6FEA67140202060214615
:101110003846FFF79FFE022727710320C002206098
:101120006571E67109202146C006FFF793FE09208C
:1011300004220B21C006FFF7C5FE092004220C2162
:10114000C006FFF7BFFE2771A6710520400320608F
:101150006571E57121460C48FFF77CFE00220D21E8
:101160000948FFF7AFFE00220F210748FFF7AAFE4C
:10117000F8BD0000280000203C07000000080048DF
:10118000C0800000FF1400000004004880FF000041
:10119000000C004810B5FFF7B5FE0848FFF7CEFE7B
:1011A0000320FFF7BFFE7D20C000FFF7C1FE04480B
:1011B000C1680029FCD1FFF7ADFE10BD55550000F8
:1011C0000030004070B501214C04204600F0C4F806
:1011D00001218D04284600F0BFF80121C80400F069
:1011E000BBF80121080500F0B7F80121022000F04A
:1011F000C1F80121080200F0BDF80121880300F0C8
:10120000B9F80121480600F0B5F80121480200F0C4
:10121000CDF80121204600F0C9F80121284600F050
:10122000C5F870BD10B586B0032080036A46908073
:101230000F2000021081002050819081012149027D
:10124000D181102111825082FF200530D080074CBF
:1012500001A9204600F0CCF80121204600F0B4F8A6
:10126000A115204600F0EEF806B010BD0038004091
:1012700070B5FF211F48E03101811E481E4A203809
:10128000C262828901242243828102882243028031
:101290001A4801817D22194852012038C262828990
:1012A000224382810288224302801548018114482A
:1012B00064212038C16281892143818101882143D1
:1012C0000180104D1520287002266E70AC702846E3
:1012D00000F01AF8162028706C70AC70284600F0E8
:1012E00013F8132028706E70AC70284600F00CF8CC
:1012F00070BD000020440140B80B000020480140B0
:10130000202000403000002030B582780124017890
:10131000002A16D08B080E4A9B009A18136889077A
:10132000C90EFF258D40AB434578AD072D0E8D408E
:101330001D4315600078C006C00E84400548046057
:1013400030BDC806C00E844002488030046030BD05
:1013500000E400E000E100E0054A002903D0516903
:1013600001435161704751698143516170470000E9
:1013700000100240054A002903D0D1690143D16120
:101380007047D1698143D16170470000001002406D
:10139000054A002903D011690143116170471169A1
:1013A000814311617047000000100240054A002986
:1013B00003D09169014391617047916981439161C3
:1013C00070470000001002404022002903D001882D
:1013D00011430180704701889143018070470246A4
:1013E000002012890A4200D0012070478181704795
:1013F00030B50388C122920113400A88CC890D8937
:101400002243CC882C4322434C8922438C8922439B
:101410001A4302808288094B1A408B8813438380C9
:101420000A8A0282028804239A4349881143018070
:10143000818B034A1140818330BD0000FFF0000022
:10144000FFF70000064A914205D00188FF220132D1
:1014500011430180704701881140018070470000EE
:10146000FFFE00001CB50023019300932248016891
:101470000122120411430160510005242403026873
:101480000A400092019A521C0192009A002A02D14D
:10149000019AA242F3D10168890302D5012100918A
:1014A00000E000930099012925D1144911220A6016
:1014B000416841604168416041687F22D2039143A5
:1014C0004160416809221204114341600168012210
:1014D00012061143016001688901FCD54168890841
:1014E0008900416041680222114341604168090757
:1014F000890F0229FAD11CBD0010024000200240D1
:1015000010B5144801680122114301604168124A74
:10151000114041600168114A1140016001680122D7
:1015200092049143016041683F221204914341605B
:10153000C16A09090901C162016BFF22543291435A
:101540000163416B49084900416300218160FFF755
:1015500089FF10BD001002400CB8FFF8FFFFF6FE37
:10156000F8B56748018A490849000182654D287825
:10157000401CC0B22870082801D100202870624E9B
:101580002A7831786148914203D80421FFF7AAFCF8
:1015900002E00421FFF7A8FC707829780127FF03F7
:1015A000884205D809203946C006FFF79BFC04E0B5
:1015B00009203946C006FFF797FCB07829788842A1
:1015C00004D810215248FFF78DFC03E01021504849
:1015D000FFF78AFCF07829784E4C884204D83946C7
:1015E0002046FFF77FFC03E039462046FFF77CFCEE
:1015F00030792978884205D809208021C006FFF774
:1016000071FC04E009208021C006FFF76DFC7079B1
:101610002978884204D808213D48FFF763FC03E09D
:1016200008213B48FFF760FCB0792A780121890244
:10163000904203D82046FFF755FC02E02046FFF712
:1016400053FCF0792978884204D820213048FFF7EC
:1016500049FC03E020212E48FFF746FC307A2A7827
:1016600001218903904203D82046FFF73BFC02E0AA
:101670002046FFF739FC707A2978884205D809207E
:101680004021C006FFF72EFC04E009204021C006DF
:10169000FFF72AFC204928780A7801214903904263
:1016A00003D32046FFF71EFC02E02046FFF71CFC98
:1016B00000210022194E2D780127B05CA84203D8E2
:1016C00038469040814303E03B4693400B4399B238
:1016D000521C92B2102AF0D3114D2846FFF786FE15
:1016E00080212846FFF77BFE0128F9D040212046C3
:1016F000FFF7FAFB40212046FFF7F4FBF8BD00009E
:10170000002000402200002034000020000C00488F
:101710000004004800080048260000203E00002089
:1017200000380040F0B585B0FE48018A49084900FC
:101730000182FD49FD4F08780125401CC0B20870A8
:10174000192804D100200870397869403970F849A7
:101750000878401CC0B20870012827D1002008700A
:10176000F4490878020604D400280CD0401E087002
:1017700009E0401CC0B208700207120F082A02D10B
:101780004006400E0870EC490878020604D4002890
:101790000CD0401E087009E0401CC0B2087002075F
:1017A000120F082A02D14006400E0870E34E31782D
:1017B000C80705D1E2480078002801D02020014365
:1017C000E0480478002C0DD001202A4682400A42CD
:1017D00004D1421D2B4693400B4399B2401C80B26A
:1017E0000528F2D33F78002F01D11020814300203B
:1017F000D54B2A4682400A4205D01A5C082A07D2F5
:10180000521C1A5404E01A5C002A01D0521E1A54C9
:10181000401C80B20A28ECD35879022801D9022052
:101820005871CA49002C087804D0082806D2401CF8
:10183000087003E0002801D0401E0870002100223B
:10184000002C31D0C2480A240457A0B2BA4B1B78EE
:10185000002B01D01807000F002C02D1002F00D060
:1018600001200123DB0301E05208D2180446401E88
:1018700080B2002CF8D1B7480A240457A0B2AD4B6F
:101880001B78002B01D01807000F002C06D1002F69
:1018900004D0012002E04900491C89B20346401EE1
:1018A00080B2002BF7D111430020AB4B2A46824077
:1018B0000A4205D01A5C082A07D2521C1A5404E0C6
:1018C0001A5C002A01D0521E1A54401C80B2102803
:1018D000ECD3A248A24F0078A24C010739D0C1072F
:1018E00019D041070AD5398A4A072146097802D416
:1018F0002943217002E049084900217001070AD5F7
:10190000398A490704D4217849084900217002E046
:1019100021782943217081071BD541070BD5398ACE
:10192000490704D4217802221143217003E0217871
:10193000FD221140217001070BD5398A490704D4D3
:101940002278FD210A40227003E02178022211430F
:101950002170010939D0C10619D541060AD5398A45
:10196000090703D421782943217003E0217849082D
:101970004900217001060AD5398A090704D4217863
:1019800049084900217002E021782943217081062D
:101990001BD541060BD5398A090704D422780221C8
:1019A0000A43227003E02278FD210A4022700006DB
:1019B0000BD5388A000704D42078FD210840207018
:1019C00003E0207802210843207000208446664806
:1019D0000378002B2BD0002064490A7829468140E7
:1019E0001142049104D00499194201D001218C467E
:1019F000401C80B20728F1D36046002813D0D806D7
:101A00000CD52078C00704D080215948FFF76CFA24
:101A10000DE080215648FFF765FA08E08021544820
:101A2000FFF762FA03E080215148FFF75BFA0020DC
:101A3000844650480378002B29D000204B490A786F
:101A4000294681401142039104D00399194201D0E3
:101A500001218C46401C80B20728F1D30121604649
:101A60004902002810D0D8060AD52078C00703D034
:101A70003F48FFF739FA0AE03D48FFF733FA06E03E
:101A80003B48FFF731FA02E03948FFF72BFA002014
:101A9000844639480378002B29D0002033490A783E
:101AA000294681401142029104D00299194201D085
:101AB00001218C46401C80B20728F1D3FF216046EB
:101AC0000131002810D0D8060AD52078C00703D0ED
:101AD0002748FFF709FA0AE02548FFF703FA06E06E
:101AE0002348FFF701FA02E02148FFF7FBF9002045
:101AF000844622480378002B5AD000201B490A78DC
:101B0000294681401142019104D00199194201D026
:101B100001218C46401C80B20728F1D36046002882
:101B200042D02DE0004401401D0000201E00002096
:101B300010000020130000201400002023000020CB
:101B40001B0000200F000020340000202600002091
:101B500060000020500000203E0000200300002014
:101B6000000000481C000020040000202500002088
:101B700000080048050000200600002007000020A3
:101B8000D8060CD52078C00704D00421F748FFF709
:101B9000ABF90DE00421F548FFF7A4F908E00421B2
:101BA000F248FFF7A1F903E00421F048FFF79AF9A2
:101BB00000208446EE480278002A29D00020ED4912
:101BC0000B78294681401942009104D000991142B6
:101BD00001D001218C46401C80B20728F1D301219D
:101BE00060468902002810D0D0060AD52078C007A8
:101BF00003D0DE48FFF778F90AE0DC48FFF772F916
:101C000006E0DA48FFF770F902E0D848FFF76AF912
:101C10003C8AD9484440732000010440D748018AD7
:101C20000F22514006221140008A0C43F021484007
:101C30003021084080000443D148274601884F40A6
:101C40000480D04861070BD5CF490978002907D017
:101C50000178042211430170CC4A0021117003E085
:101C60000178FB2211400170E10608D5C6490978C8
:101C7000002904D0017808221143017003E00178A3
:101C8000F72211400170210607D5BF4909780029C4
:101C900003D001782943017003E001784908490025
:101CA0000170790610D5610607D5B9490D70B94A9A
:101CB00000211170B84A117006E0B54900220A707F
:101CC0003178202211433170610604D50178022257
:101CD0001143017003E00178FD2211400170B80545
:101CE00028D5A00526D5AD480078002822D0A649E1
:101CF00008786840087001210903002806D09B4835
:101D0000FFF7F2F830782843307013E09F4A1570DF
:101D1000A448A34A02809548FFF7E4F83078EC2104
:101D20000840307040219148FFF7DCF880218F484F
:101D3000FFF7D8F8F80513D5E00511D592480078DB
:101D400000280DD03078022148403070810707D537
:101D50008E490D70934A92491180EF2108403070EE
:101D60009149780511D560050FD58948007800287C
:101D700004D088480278521C027006E00878800778
:101D800003D53078042250403070B80711D5A00731
:101D90000FD57F480078002804D07F480178491C7F
:101DA000017006E00878800603D5307808214840A5
:101DB0003070B80610D5A0060ED5734800780028FC
:101DC0000AD03078102148403070C00604D56F48E2
:101DD0000570744972480880307881067DD5DF210E
:101DE000084030706B48714E01788025704C032993
:101DF00007D0052925D06F48062942D0072965D18B
:101E000052E06D4F0820385E38800221795E8142B1
:101E100005D0091A3046FEF7CBF9B88000E0BE8045
:101E2000002202212046FEF7FAFC00F0AFF900F094
:101E3000CFF962480570012202212046FEF7EFFC2F
:101E400044E05D4F0820385E78800021795E88424A
:101E500005D0411A3046FEF7ABF9B88000E0BE80ED
:101E6000002202212046FEF7DAFC00F08FF900F094
:101E7000AFF952480570012202212046FEF7CFFC3F
:101E800024E007210170002202212046FEF7C7FC52
:101E900000F07CF900F09CF948480570012202210D
:101EA0002046FEF7BCFC11E0242101700022022133
:101EB0002046FEF7B4FC00F069F900F089F94048CB
:101EC0000570012202212046FEF7A9FC3248007865
:101ED000032803D0052840D120E03EE0394F0820F8
:101EE000385E38800221795E814205D0091A304679
:101EF000FEF75EF9B88000E0BE8000220221204695
:101F0000FEF78DFC00F042F900F062F92C490D70EB
:101F1000012202212046FEF782FC1EE0294F082004
:101F2000385E78800021795E884205D0411A3046BB
:101F3000FEF73EF9B88000E0BE8000220221204674
:101F4000FEF76DFC00F022F900F042F91C490D701B
:101F5000012202212046FEF762FC1B48816A03220F
:101F600051408162FEF718FB05B0F0BD0004004847
:101F70000800002025000020FF070000000800489E
:101F800020000020240000200F000020000000207E
:101F90000E0000200C0000200D0000201B0000207F
:101FA000501400000A00002002000020F02300006E
:101FB00000640040010000205000002013000020B9
:101FC000140000206000002000240140F8B55D48A6
:101FD000018A4908490001825B490878401CC0B267
:101FE00008704026594D00241F281AD10C70584FF4
:101FF0003878002814D15748818A71408182564927
:102000000C70564A01211170564A55491180B10190
:10201000FEF768FF2878EC210840287052480470C9
:102020003C70FEF777FF51480178491C0170002091
:102030004F490A78910700D50120D10704270029CC
:1020400000D0384353071021002B00DA0843120751
:1020500000D53043474EF072C0203C4A12789207B8
:1020600000D5C1203C4A1278002A00D038433B4AB0
:102070001278002A00D00843307334723160022095
:10208000B0723D4D3B492846FEF790FC2846FEF7CE
:10209000C1FB36480078C0071AD03472182030606F
:1020A000B7723648C07AF0723548C07A3073FF2074
:1020B0007073B0732F492846FEF778FC2846FEF768
:1020C000A9FB002804D02348818A802251408182C4
:1020D00026480178042933D10470F0201B4909787F
:1020E0004A0700D5F120090700D53843347228216A
:1020F00031600321B172FF21F172317370731D4998
:102100002846FEF753FC2846FEF784FB1D4800785E
:10211000002815D0F0201C490978CA0700D0F1200A
:10212000890700D538433472562131600121B172DC
:10213000F07210492846FEF739FC2846FEF76AFB84
:10214000F8BD0000004801401200002023000020DC
:1021500011000020000400480F00002000000020B3
:10216000501400000A0000201B0000203300002053
:102170002400002070000020006400405000002077
:1021800060000020030000201C00002010B50E4855
:10219000C168C907FCD1C16820228906002900DA7C
:1021A000C260016902231943016108494161016963
:1021B000402421430161C168C907FCD1C2600169A3
:1021C0009943016110BD0000002002400078000822
:1021D00010B53148C168C907FCD1C1688A06202101
:1021E000002A00DAC160026901231A4302612B4C04
:1021F0002B4B22881A80C2689206FCD5C160628887
:102200009A80C2689206FCD5C160244A10321488B4
:102210001C81C468A406FCD5C16052889A81C2683A
:102220009206FCD5C1601F4A54781C82C468A4067B
:10223000FCD5C160D4789C82C468A406FCD5C1607A
:1022400014791C83C468A406FCD5C16054799C83AE
:10225000C3689B06FCD5C160114C93792034238060
:10226000C3689B06FCD5C1609378A380C3689B06B6
:10227000FCD5C160D3792381C3689B06FCD5C160BE
:10228000127AA281C2689206FCD5C1600169490830
:102290004900016110BD00000020024050000020F4
:1022A000007800080000002008B5FEF773FF6549BC
:1022B000282008800E4610363080C820488096209E
:1022C0007080614C072060700020E07020716071A8
:1022D000A071E07120725E485C4A42605D4A4260D3
:1022E0005D4A1068431C00D008805068431C00D031
:1022F00048809068431C00D03080D068431C00D0D8
:1023000070801069431C00D060705069431C00D07D
:10231000E0709069431C00D02071D069431C00D04C
:102320006071106A431C00D0A071506A431C00D039
:10233000A070906A431C00D0E071D06A421C00D0AB
:102340002072404802250027455FC75FBD4206D086
:10235000E91B4248FDF72CFF3A49888002E03948E2
:102360003E49818037490226103100208E5F085E89
:102370000090864208D00098311A3848FDF718FFBF
:1023800030491031888003E02E493448103188806C
:102390002C48BD4207D01920E91B8002FDF708FF39
:1023A0002849C88002E019218902C180254D009882
:1023B0001035864207D00098311A19208002FDF7A7
:1023C000F7FEE88002E019208002E880E078092129
:1023D0000843E070FF20A070207904210843207199
:1023E0006079082108436071A07910210843A07129
:1023F000E07920210843E071207A402108432072CF
:10240000FEF7E0FEFEF742FEFEF70CFFFEF79CFD36
:10241000FEF7D0FDFEF72CFF1148608101212170ED
:102420000848002220300272016081726178C17216
:102430000C4C01462046FEF7B9FA2046FEF7EAF9B1
:10244000FEE7000050000020000000202301674547
:1024500000200240AB89EFCD00780008F023000097
:102460005014000000640040002102E04008491CB4
:10247000C9B20028FAD10846704700009C24000821
:10248000000000203400000004010008D0240008EF
:1024900034000020E40600002001000800000000D5
:1024A000000000000000000000000000000000002C
:1024B000000000000000000000000000000000001C
:1024C000000000000000000000000000000000000C
:040000050800016589
:00000001FF
